{
  "_format": "hh-sol-artifact-1",
  "contractName": "LitNft",
  "sourceName": "contracts/LitNFT.sol",
  "abi": [
    {
      "inputs": [],
      "stateMutability": "nonpayable",
      "type": "constructor"
    },
    {
      "anonymous": false,
      "inputs": [
        {
          "indexed": true,
          "internalType": "address",
          "name": "owner",
          "type": "address"
        },
        {
          "indexed": true,
          "internalType": "address",
          "name": "approved",
          "type": "address"
        },
        {
          "indexed": true,
          "internalType": "uint256",
          "name": "tokenId",
          "type": "uint256"
        }
      ],
      "name": "Approval",
      "type": "event"
    },
    {
      "anonymous": false,
      "inputs": [
        {
          "indexed": true,
          "internalType": "address",
          "name": "owner",
          "type": "address"
        },
        {
          "indexed": true,
          "internalType": "address",
          "name": "operator",
          "type": "address"
        },
        {
          "indexed": false,
          "internalType": "bool",
          "name": "approved",
          "type": "bool"
        }
      ],
      "name": "ApprovalForAll",
      "type": "event"
    },
    {
      "anonymous": false,
      "inputs": [
        {
          "indexed": false,
          "internalType": "uint256",
          "name": "_fromTokenId",
          "type": "uint256"
        },
        {
          "indexed": false,
          "internalType": "uint256",
          "name": "_toTokenId",
          "type": "uint256"
        }
      ],
      "name": "BatchMetadataUpdate",
      "type": "event"
    },
    {
      "anonymous": false,
      "inputs": [
        {
          "indexed": false,
          "internalType": "uint256",
          "name": "_tokenId",
          "type": "uint256"
        }
      ],
      "name": "MetadataUpdate",
      "type": "event"
    },
    {
      "anonymous": false,
      "inputs": [
        {
          "indexed": true,
          "internalType": "address",
          "name": "from",
          "type": "address"
        },
        {
          "indexed": true,
          "internalType": "address",
          "name": "to",
          "type": "address"
        },
        {
          "indexed": true,
          "internalType": "uint256",
          "name": "tokenId",
          "type": "uint256"
        }
      ],
      "name": "Transfer",
      "type": "event"
    },
    {
      "inputs": [
        {
          "internalType": "address",
          "name": "to",
          "type": "address"
        },
        {
          "internalType": "uint256",
          "name": "tokenId",
          "type": "uint256"
        }
      ],
      "name": "approve",
      "outputs": [],
      "stateMutability": "nonpayable",
      "type": "function"
    },
    {
      "inputs": [
        {
          "internalType": "address",
          "name": "owner",
          "type": "address"
        }
      ],
      "name": "balanceOf",
      "outputs": [
        {
          "internalType": "uint256",
          "name": "",
          "type": "uint256"
        }
      ],
      "stateMutability": "view",
      "type": "function"
    },
    {
      "inputs": [],
      "name": "fetchNfts",
      "outputs": [
        {
          "components": [
            {
              "internalType": "string",
              "name": "name",
              "type": "string"
            },
            {
              "internalType": "string",
              "name": "imageUrl",
              "type": "string"
            },
            {
              "internalType": "string",
              "name": "encryptedDescription",
              "type": "string"
            },
            {
              "internalType": "string",
              "name": "encryptedSymmetricKey",
              "type": "string"
            }
          ],
          "internalType": "struct LitNft.nft[]",
          "name": "",
          "type": "tuple[]"
        }
      ],
      "stateMutability": "view",
      "type": "function"
    },
    {
      "inputs": [
        {
          "internalType": "uint256",
          "name": "tokenId",
          "type": "uint256"
        }
      ],
      "name": "getApproved",
      "outputs": [
        {
          "internalType": "address",
          "name": "",
          "type": "address"
        }
      ],
      "stateMutability": "view",
      "type": "function"
    },
    {
      "inputs": [
        {
          "internalType": "address",
          "name": "owner",
          "type": "address"
        },
        {
          "internalType": "address",
          "name": "operator",
          "type": "address"
        }
      ],
      "name": "isApprovedForAll",
      "outputs": [
        {
          "internalType": "bool",
          "name": "",
          "type": "bool"
        }
      ],
      "stateMutability": "view",
      "type": "function"
    },
    {
      "inputs": [
        {
          "internalType": "string",
          "name": "name",
          "type": "string"
        },
        {
          "internalType": "string",
          "name": "imageUrl",
          "type": "string"
        },
        {
          "internalType": "string",
          "name": "encryptedDescription",
          "type": "string"
        },
        {
          "internalType": "string",
          "name": "encryptedSymmetricKey",
          "type": "string"
        }
      ],
      "name": "mintLitNft",
      "outputs": [],
      "stateMutability": "nonpayable",
      "type": "function"
    },
    {
      "inputs": [],
      "name": "name",
      "outputs": [
        {
          "internalType": "string",
          "name": "",
          "type": "string"
        }
      ],
      "stateMutability": "view",
      "type": "function"
    },
    {
      "inputs": [
        {
          "internalType": "uint256",
          "name": "tokenId",
          "type": "uint256"
        }
      ],
      "name": "ownerOf",
      "outputs": [
        {
          "internalType": "address",
          "name": "",
          "type": "address"
        }
      ],
      "stateMutability": "view",
      "type": "function"
    },
    {
      "inputs": [
        {
          "internalType": "address",
          "name": "from",
          "type": "address"
        },
        {
          "internalType": "address",
          "name": "to",
          "type": "address"
        },
        {
          "internalType": "uint256",
          "name": "tokenId",
          "type": "uint256"
        }
      ],
      "name": "safeTransferFrom",
      "outputs": [],
      "stateMutability": "nonpayable",
      "type": "function"
    },
    {
      "inputs": [
        {
          "internalType": "address",
          "name": "from",
          "type": "address"
        },
        {
          "internalType": "address",
          "name": "to",
          "type": "address"
        },
        {
          "internalType": "uint256",
          "name": "tokenId",
          "type": "uint256"
        },
        {
          "internalType": "bytes",
          "name": "data",
          "type": "bytes"
        }
      ],
      "name": "safeTransferFrom",
      "outputs": [],
      "stateMutability": "nonpayable",
      "type": "function"
    },
    {
      "inputs": [
        {
          "internalType": "address",
          "name": "operator",
          "type": "address"
        },
        {
          "internalType": "bool",
          "name": "approved",
          "type": "bool"
        }
      ],
      "name": "setApprovalForAll",
      "outputs": [],
      "stateMutability": "nonpayable",
      "type": "function"
    },
    {
      "inputs": [
        {
          "internalType": "bytes4",
          "name": "interfaceId",
          "type": "bytes4"
        }
      ],
      "name": "supportsInterface",
      "outputs": [
        {
          "internalType": "bool",
          "name": "",
          "type": "bool"
        }
      ],
      "stateMutability": "view",
      "type": "function"
    },
    {
      "inputs": [],
      "name": "symbol",
      "outputs": [
        {
          "internalType": "string",
          "name": "",
          "type": "string"
        }
      ],
      "stateMutability": "view",
      "type": "function"
    },
    {
      "inputs": [
        {
          "internalType": "uint256",
          "name": "tokenId",
          "type": "uint256"
        }
      ],
      "name": "tokenURI",
      "outputs": [
        {
          "internalType": "string",
          "name": "",
          "type": "string"
        }
      ],
      "stateMutability": "view",
      "type": "function"
    },
    {
      "inputs": [
        {
          "internalType": "address",
          "name": "from",
          "type": "address"
        },
        {
          "internalType": "address",
          "name": "to",
          "type": "address"
        },
        {
          "internalType": "uint256",
          "name": "tokenId",
          "type": "uint256"
        }
      ],
      "name": "transferFrom",
      "outputs": [],
      "stateMutability": "nonpayable",
      "type": "function"
    }
  ],
  "bytecode": "0x60806040523480156200001157600080fd5b506040518060400160405280600781526020017f4c6974204e4654000000000000000000000000000000000000000000000000008152506040518060400160405280600681526020017f4c49544e4654000000000000000000000000000000000000000000000000000081525081600090816200008f91906200032c565b508060019081620000a191906200032c565b505050600160078190555062000413565b600081519050919050565b7f4e487b7100000000000000000000000000000000000000000000000000000000600052604160045260246000fd5b7f4e487b7100000000000000000000000000000000000000000000000000000000600052602260045260246000fd5b600060028204905060018216806200013457607f821691505b6020821081036200014a5762000149620000ec565b5b50919050565b60008190508160005260206000209050919050565b60006020601f8301049050919050565b600082821b905092915050565b600060088302620001b47fffffffffffffffffffffffffffffffffffffffffffffffffffffffffffffffff8262000175565b620001c0868362000175565b95508019841693508086168417925050509392505050565b6000819050919050565b6000819050919050565b60006200020d620002076200020184620001d8565b620001e2565b620001d8565b9050919050565b6000819050919050565b6200022983620001ec565b62000241620002388262000214565b84845462000182565b825550505050565b600090565b6200025862000249565b620002658184846200021e565b505050565b5b818110156200028d57620002816000826200024e565b6001810190506200026b565b5050565b601f821115620002dc57620002a68162000150565b620002b18462000165565b81016020851015620002c1578190505b620002d9620002d08562000165565b8301826200026a565b50505b505050565b600082821c905092915050565b60006200030160001984600802620002e1565b1980831691505092915050565b60006200031c8383620002ee565b9150826002028217905092915050565b6200033782620000b2565b67ffffffffffffffff811115620003535762000352620000bd565b5b6200035f82546200011b565b6200036c82828562000291565b600060209050601f831160018114620003a457600084156200038f578287015190505b6200039b85826200030e565b8655506200040b565b601f198416620003b48662000150565b60005b82811015620003de57848901518255600182019150602085019450602081019050620003b7565b86831015620003fe5784890151620003fa601f891682620002ee565b8355505b6001600288020188555050505b505050505050565b61395680620004236000396000f3fe608060405234801561001057600080fd5b50600436106100f55760003560e01c80636352211e11610097578063a22cb46511610066578063a22cb46514610284578063b88d4fde146102a0578063c87b56dd146102bc578063e985e9c5146102ec576100f5565b80636352211e146101ea57806370a082311461021a57806395d89b411461024a5780639fd316ad14610268576100f5565b8063095ea7b3116100d3578063095ea7b31461017857806320de9a631461019457806323b872dd146101b257806342842e0e146101ce576100f5565b806301ffc9a7146100fa57806306fdde031461012a578063081812fc14610148575b600080fd5b610114600480360381019061010f919061207d565b61031c565b60405161012191906120c5565b60405180910390f35b61013261037d565b60405161013f9190612170565b60405180910390f35b610162600480360381019061015d91906121c8565b61040f565b60405161016f9190612236565b60405180910390f35b610192600480360381019061018d919061227d565b610455565b005b61019c61056c565b6040516101a99190612441565b60405180910390f35b6101cc60048036038101906101c79190612463565b6108a4565b005b6101e860048036038101906101e39190612463565b610904565b005b61020460048036038101906101ff91906121c8565b610924565b6040516102119190612236565b60405180910390f35b610234600480360381019061022f91906124b6565b6109aa565b60405161024191906124f2565b60405180910390f35b610252610a61565b60405161025f9190612170565b60405180910390f35b610282600480360381019061027d9190612642565b610af3565b005b61029e60048036038101906102999190612745565b610bd0565b005b6102ba60048036038101906102b59190612826565b610be6565b005b6102d660048036038101906102d191906121c8565b610c48565b6040516102e39190612170565b60405180910390f35b610306600480360381019061030191906128a9565b610d5a565b60405161031391906120c5565b60405180910390f35b6000634906490660e01b7bffffffffffffffffffffffffffffffffffffffffffffffffffffffff1916827bffffffffffffffffffffffffffffffffffffffffffffffffffffffff19161480610376575061037582610dee565b5b9050919050565b60606000805461038c90612918565b80601f01602080910402602001604051908101604052809291908181526020018280546103b890612918565b80156104055780601f106103da57610100808354040283529160200191610405565b820191906000526020600020905b8154815290600101906020018083116103e857829003601f168201915b5050505050905090565b600061041a82610ed0565b6004600083815260200190815260200160002060009054906101000a900473ffffffffffffffffffffffffffffffffffffffff169050919050565b600061046082610924565b90508073ffffffffffffffffffffffffffffffffffffffff168373ffffffffffffffffffffffffffffffffffffffff16036104d0576040517f08c379a00000000000000000000000000000000000000000000000000000000081526004016104c7906129bb565b60405180910390fd5b8073ffffffffffffffffffffffffffffffffffffffff166104ef610f1b565b73ffffffffffffffffffffffffffffffffffffffff16148061051e575061051d81610518610f1b565b610d5a565b5b61055d576040517f08c379a000000000000000000000000000000000000000000000000000000000815260040161055490612a4d565b60405180910390fd5b6105678383610f23565b505050565b6060600061057a6008610fdc565b67ffffffffffffffff81111561059357610592612517565b5b6040519080825280602002602001820160405280156105cc57816020015b6105b9611fe9565b8152602001906001900390816105b15790505b5090506000600190505b60016105e26008610fdc565b6105ec9190612a9c565b81101561089c5760006009600083815260200190815260200160002060405180608001604052908160008201805461062390612918565b80601f016020809104026020016040519081016040528092919081815260200182805461064f90612918565b801561069c5780601f106106715761010080835404028352916020019161069c565b820191906000526020600020905b81548152906001019060200180831161067f57829003601f168201915b505050505081526020016001820180546106b590612918565b80601f01602080910402602001604051908101604052809291908181526020018280546106e190612918565b801561072e5780601f106107035761010080835404028352916020019161072e565b820191906000526020600020905b81548152906001019060200180831161071157829003601f168201915b5050505050815260200160028201805461074790612918565b80601f016020809104026020016040519081016040528092919081815260200182805461077390612918565b80156107c05780601f10610795576101008083540402835291602001916107c0565b820191906000526020600020905b8154815290600101906020018083116107a357829003601f168201915b505050505081526020016003820180546107d990612918565b80601f016020809104026020016040519081016040528092919081815260200182805461080590612918565b80156108525780601f1061082757610100808354040283529160200191610852565b820191906000526020600020905b81548152906001019060200180831161083557829003601f168201915b5050505050815250509050808360018461086c9190612ad0565b8151811061087d5761087c612b04565b5b602002602001018190525050808061089490612b33565b9150506105d6565b508091505090565b6108b56108af610f1b565b82610fea565b6108f4576040517f08c379a00000000000000000000000000000000000000000000000000000000081526004016108eb90612bed565b60405180910390fd5b6108ff83838361107f565b505050565b61091f83838360405180602001604052806000815250610be6565b505050565b60008061093083611378565b9050600073ffffffffffffffffffffffffffffffffffffffff168173ffffffffffffffffffffffffffffffffffffffff16036109a1576040517f08c379a000000000000000000000000000000000000000000000000000000000815260040161099890612c59565b60405180910390fd5b80915050919050565b60008073ffffffffffffffffffffffffffffffffffffffff168273ffffffffffffffffffffffffffffffffffffffff1603610a1a576040517f08c379a0000000000000000000000000000000000000000000000000000000008152600401610a1190612ceb565b60405180910390fd5b600360008373ffffffffffffffffffffffffffffffffffffffff1673ffffffffffffffffffffffffffffffffffffffff168152602001908152602001600020549050919050565b606060018054610a7090612918565b80601f0160208091040260200160405190810160405280929190818152602001828054610a9c90612918565b8015610ae95780601f10610abe57610100808354040283529160200191610ae9565b820191906000526020600020905b815481529060010190602001808311610acc57829003601f168201915b5050505050905090565b610afb6113b5565b610b056008611404565b6000610b116008610fdc565b9050610b1d338261141a565b610b3281610b2d87878787611438565b611497565b604051806080016040528086815260200185815260200184815260200183815250600960008381526020019081526020016000206000820151816000019081610b7b9190612eb7565b506020820151816001019081610b919190612eb7565b506040820151816002019081610ba79190612eb7565b506060820151816003019081610bbd9190612eb7565b5090505050610bca61153b565b50505050565b610be2610bdb610f1b565b8383611545565b5050565b610bf7610bf1610f1b565b83610fea565b610c36576040517f08c379a0000000000000000000000000000000000000000000000000000000008152600401610c2d90612bed565b60405180910390fd5b610c42848484846116b1565b50505050565b6060610c5382610ed0565b6000600660008481526020019081526020016000208054610c7390612918565b80601f0160208091040260200160405190810160405280929190818152602001828054610c9f90612918565b8015610cec5780601f10610cc157610100808354040283529160200191610cec565b820191906000526020600020905b815481529060010190602001808311610ccf57829003601f168201915b505050505090506000610cfd61170d565b90506000815103610d12578192505050610d55565b600082511115610d47578082604051602001610d2f929190612fc5565b60405160208183030381529060405292505050610d55565b610d5084611724565b925050505b919050565b6000600560008473ffffffffffffffffffffffffffffffffffffffff1673ffffffffffffffffffffffffffffffffffffffff16815260200190815260200160002060008373ffffffffffffffffffffffffffffffffffffffff1673ffffffffffffffffffffffffffffffffffffffff16815260200190815260200160002060009054906101000a900460ff16905092915050565b60007f80ac58cd000000000000000000000000000000000000000000000000000000007bffffffffffffffffffffffffffffffffffffffffffffffffffffffff1916827bffffffffffffffffffffffffffffffffffffffffffffffffffffffff19161480610eb957507f5b5e139f000000000000000000000000000000000000000000000000000000007bffffffffffffffffffffffffffffffffffffffffffffffffffffffff1916827bffffffffffffffffffffffffffffffffffffffffffffffffffffffff1916145b80610ec95750610ec88261178c565b5b9050919050565b610ed9816117f6565b610f18576040517f08c379a0000000000000000000000000000000000000000000000000000000008152600401610f0f90612c59565b60405180910390fd5b50565b600033905090565b816004600083815260200190815260200160002060006101000a81548173ffffffffffffffffffffffffffffffffffffffff021916908373ffffffffffffffffffffffffffffffffffffffff160217905550808273ffffffffffffffffffffffffffffffffffffffff16610f9683610924565b73ffffffffffffffffffffffffffffffffffffffff167f8c5be1e5ebec7d5bd14f71427d1e84f3dd0314c0f7b2291e5b200ac8c7c3b92560405160405180910390a45050565b600081600001549050919050565b600080610ff683610924565b90508073ffffffffffffffffffffffffffffffffffffffff168473ffffffffffffffffffffffffffffffffffffffff16148061103857506110378185610d5a565b5b8061107657508373ffffffffffffffffffffffffffffffffffffffff1661105e8461040f565b73ffffffffffffffffffffffffffffffffffffffff16145b91505092915050565b8273ffffffffffffffffffffffffffffffffffffffff1661109f82610924565b73ffffffffffffffffffffffffffffffffffffffff16146110f5576040517f08c379a00000000000000000000000000000000000000000000000000000000081526004016110ec9061305b565b60405180910390fd5b600073ffffffffffffffffffffffffffffffffffffffff168273ffffffffffffffffffffffffffffffffffffffff1603611164576040517f08c379a000000000000000000000000000000000000000000000000000000000815260040161115b906130ed565b60405180910390fd5b6111718383836001611837565b8273ffffffffffffffffffffffffffffffffffffffff1661119182610924565b73ffffffffffffffffffffffffffffffffffffffff16146111e7576040517f08c379a00000000000000000000000000000000000000000000000000000000081526004016111de9061305b565b60405180910390fd5b6004600082815260200190815260200160002060006101000a81549073ffffffffffffffffffffffffffffffffffffffff02191690556001600360008573ffffffffffffffffffffffffffffffffffffffff1673ffffffffffffffffffffffffffffffffffffffff168152602001908152602001600020600082825403925050819055506001600360008473ffffffffffffffffffffffffffffffffffffffff1673ffffffffffffffffffffffffffffffffffffffff16815260200190815260200160002060008282540192505081905550816002600083815260200190815260200160002060006101000a81548173ffffffffffffffffffffffffffffffffffffffff021916908373ffffffffffffffffffffffffffffffffffffffff160217905550808273ffffffffffffffffffffffffffffffffffffffff168473ffffffffffffffffffffffffffffffffffffffff167fddf252ad1be2c89b69c2b068fc378daa952ba7f163c4a11628f55a4df523b3ef60405160405180910390a4611373838383600161183d565b505050565b60006002600083815260200190815260200160002060009054906101000a900473ffffffffffffffffffffffffffffffffffffffff169050919050565b6002600754036113fa576040517f08c379a00000000000000000000000000000000000000000000000000000000081526004016113f190613159565b60405180910390fd5b6002600781905550565b6001816000016000828254019250508190555050565b611434828260405180602001604052806000815250611843565b5050565b606060008585858560405160200161145394939291906133d9565b604051602081830303815290604052905061146d8161189e565b60405160200161147d91906134d1565b604051602081830303815290604052915050949350505050565b6114a0826117f6565b6114df576040517f08c379a00000000000000000000000000000000000000000000000000000000081526004016114d690613565565b60405180910390fd5b806006600084815260200190815260200160002090816114ff9190612eb7565b507ff8e1a15aba9398e019f0b49df1a4fde98ee17ae345cb5f6b5e2c27f5033e8ce78260405161152f91906124f2565b60405180910390a15050565b6001600781905550565b8173ffffffffffffffffffffffffffffffffffffffff168373ffffffffffffffffffffffffffffffffffffffff16036115b3576040517f08c379a00000000000000000000000000000000000000000000000000000000081526004016115aa906135d1565b60405180910390fd5b80600560008573ffffffffffffffffffffffffffffffffffffffff1673ffffffffffffffffffffffffffffffffffffffff16815260200190815260200160002060008473ffffffffffffffffffffffffffffffffffffffff1673ffffffffffffffffffffffffffffffffffffffff16815260200190815260200160002060006101000a81548160ff0219169083151502179055508173ffffffffffffffffffffffffffffffffffffffff168373ffffffffffffffffffffffffffffffffffffffff167f17307eab39ab6107e8899845ad3d59bd9653f200f220920489ca2b5937696c31836040516116a491906120c5565b60405180910390a3505050565b6116bc84848461107f565b6116c884848484611a01565b611707576040517f08c379a00000000000000000000000000000000000000000000000000000000081526004016116fe90613663565b60405180910390fd5b50505050565b606060405180602001604052806000815250905090565b606061172f82610ed0565b600061173961170d565b905060008151116117595760405180602001604052806000815250611784565b8061176384611b88565b604051602001611774929190612fc5565b6040516020818303038152906040525b915050919050565b60007f01ffc9a7000000000000000000000000000000000000000000000000000000007bffffffffffffffffffffffffffffffffffffffffffffffffffffffff1916827bffffffffffffffffffffffffffffffffffffffffffffffffffffffff1916149050919050565b60008073ffffffffffffffffffffffffffffffffffffffff1661181883611378565b73ffffffffffffffffffffffffffffffffffffffff1614159050919050565b50505050565b50505050565b61184d8383611c56565b61185a6000848484611a01565b611899576040517f08c379a000000000000000000000000000000000000000000000000000000000815260040161189090613663565b60405180910390fd5b505050565b606060008251036118c0576040518060200160405280600081525090506119fc565b60006040518060600160405280604081526020016138e160409139905060006003600285516118ef9190612a9c565b6118f991906136b2565b600461190591906136e3565b67ffffffffffffffff81111561191e5761191d612517565b5b6040519080825280601f01601f1916602001820160405280156119505781602001600182028036833780820191505090505b509050600182016020820185865187015b808210156119bc576003820191508151603f8160121c168501518453600184019350603f81600c1c168501518453600184019350603f8160061c168501518453600184019350603f8116850151845360018401935050611961565b50506003865106600181146119d857600281146119eb576119f3565b603d6001830353603d60028303536119f3565b603d60018303535b50505080925050505b919050565b6000611a228473ffffffffffffffffffffffffffffffffffffffff16611e73565b15611b7b578373ffffffffffffffffffffffffffffffffffffffff1663150b7a02611a4b610f1b565b8786866040518563ffffffff1660e01b8152600401611a6d949392919061377a565b6020604051808303816000875af1925050508015611aa957506040513d601f19601f82011682018060405250810190611aa691906137db565b60015b611b2b573d8060008114611ad9576040519150601f19603f3d011682016040523d82523d6000602084013e611ade565b606091505b506000815103611b23576040517f08c379a0000000000000000000000000000000000000000000000000000000008152600401611b1a90613663565b60405180910390fd5b805181602001fd5b63150b7a0260e01b7bffffffffffffffffffffffffffffffffffffffffffffffffffffffff1916817bffffffffffffffffffffffffffffffffffffffffffffffffffffffff191614915050611b80565b600190505b949350505050565b606060006001611b9784611e96565b01905060008167ffffffffffffffff811115611bb657611bb5612517565b5b6040519080825280601f01601f191660200182016040528015611be85781602001600182028036833780820191505090505b509050600082602001820190505b600115611c4b578080600190039150507f3031323334353637383961626364656600000000000000000000000000000000600a86061a8153600a8581611c3f57611c3e613683565b5b04945060008503611bf6575b819350505050919050565b600073ffffffffffffffffffffffffffffffffffffffff168273ffffffffffffffffffffffffffffffffffffffff1603611cc5576040517f08c379a0000000000000000000000000000000000000000000000000000000008152600401611cbc90613854565b60405180910390fd5b611cce816117f6565b15611d0e576040517f08c379a0000000000000000000000000000000000000000000000000000000008152600401611d05906138c0565b60405180910390fd5b611d1c600083836001611837565b611d25816117f6565b15611d65576040517f08c379a0000000000000000000000000000000000000000000000000000000008152600401611d5c906138c0565b60405180910390fd5b6001600360008473ffffffffffffffffffffffffffffffffffffffff1673ffffffffffffffffffffffffffffffffffffffff16815260200190815260200160002060008282540192505081905550816002600083815260200190815260200160002060006101000a81548173ffffffffffffffffffffffffffffffffffffffff021916908373ffffffffffffffffffffffffffffffffffffffff160217905550808273ffffffffffffffffffffffffffffffffffffffff16600073ffffffffffffffffffffffffffffffffffffffff167fddf252ad1be2c89b69c2b068fc378daa952ba7f163c4a11628f55a4df523b3ef60405160405180910390a4611e6f60008383600161183d565b5050565b6000808273ffffffffffffffffffffffffffffffffffffffff163b119050919050565b600080600090507a184f03e93ff9f4daa797ed6e38ed64bf6a1f0100000000000000008310611ef4577a184f03e93ff9f4daa797ed6e38ed64bf6a1f0100000000000000008381611eea57611ee9613683565b5b0492506040810190505b6d04ee2d6d415b85acef81000000008310611f31576d04ee2d6d415b85acef81000000008381611f2757611f26613683565b5b0492506020810190505b662386f26fc100008310611f6057662386f26fc100008381611f5657611f55613683565b5b0492506010810190505b6305f5e1008310611f89576305f5e1008381611f7f57611f7e613683565b5b0492506008810190505b6127108310611fae576127108381611fa457611fa3613683565b5b0492506004810190505b60648310611fd15760648381611fc757611fc6613683565b5b0492506002810190505b600a8310611fe0576001810190505b80915050919050565b6040518060800160405280606081526020016060815260200160608152602001606081525090565b6000604051905090565b600080fd5b600080fd5b60007fffffffff0000000000000000000000000000000000000000000000000000000082169050919050565b61205a81612025565b811461206557600080fd5b50565b60008135905061207781612051565b92915050565b6000602082840312156120935761209261201b565b5b60006120a184828501612068565b91505092915050565b60008115159050919050565b6120bf816120aa565b82525050565b60006020820190506120da60008301846120b6565b92915050565b600081519050919050565b600082825260208201905092915050565b60005b8381101561211a5780820151818401526020810190506120ff565b60008484015250505050565b6000601f19601f8301169050919050565b6000612142826120e0565b61214c81856120eb565b935061215c8185602086016120fc565b61216581612126565b840191505092915050565b6000602082019050818103600083015261218a8184612137565b905092915050565b6000819050919050565b6121a581612192565b81146121b057600080fd5b50565b6000813590506121c28161219c565b92915050565b6000602082840312156121de576121dd61201b565b5b60006121ec848285016121b3565b91505092915050565b600073ffffffffffffffffffffffffffffffffffffffff82169050919050565b6000612220826121f5565b9050919050565b61223081612215565b82525050565b600060208201905061224b6000830184612227565b92915050565b61225a81612215565b811461226557600080fd5b50565b60008135905061227781612251565b92915050565b600080604083850312156122945761229361201b565b5b60006122a285828601612268565b92505060206122b3858286016121b3565b9150509250929050565b600081519050919050565b600082825260208201905092915050565b6000819050602082019050919050565b600082825260208201905092915050565b6000612305826120e0565b61230f81856122e9565b935061231f8185602086016120fc565b61232881612126565b840191505092915050565b6000608083016000830151848203600086015261235082826122fa565b9150506020830151848203602086015261236a82826122fa565b9150506040830151848203604086015261238482826122fa565b9150506060830151848203606086015261239e82826122fa565b9150508091505092915050565b60006123b78383612333565b905092915050565b6000602082019050919050565b60006123d7826122bd565b6123e181856122c8565b9350836020820285016123f3856122d9565b8060005b8581101561242f578484038952815161241085826123ab565b945061241b836123bf565b925060208a019950506001810190506123f7565b50829750879550505050505092915050565b6000602082019050818103600083015261245b81846123cc565b905092915050565b60008060006060848603121561247c5761247b61201b565b5b600061248a86828701612268565b935050602061249b86828701612268565b92505060406124ac868287016121b3565b9150509250925092565b6000602082840312156124cc576124cb61201b565b5b60006124da84828501612268565b91505092915050565b6124ec81612192565b82525050565b600060208201905061250760008301846124e3565b92915050565b600080fd5b600080fd5b7f4e487b7100000000000000000000000000000000000000000000000000000000600052604160045260246000fd5b61254f82612126565b810181811067ffffffffffffffff8211171561256e5761256d612517565b5b80604052505050565b6000612581612011565b905061258d8282612546565b919050565b600067ffffffffffffffff8211156125ad576125ac612517565b5b6125b682612126565b9050602081019050919050565b82818337600083830152505050565b60006125e56125e084612592565b612577565b90508281526020810184848401111561260157612600612512565b5b61260c8482856125c3565b509392505050565b600082601f8301126126295761262861250d565b5b81356126398482602086016125d2565b91505092915050565b6000806000806080858703121561265c5761265b61201b565b5b600085013567ffffffffffffffff81111561267a57612679612020565b5b61268687828801612614565b945050602085013567ffffffffffffffff8111156126a7576126a6612020565b5b6126b387828801612614565b935050604085013567ffffffffffffffff8111156126d4576126d3612020565b5b6126e087828801612614565b925050606085013567ffffffffffffffff81111561270157612700612020565b5b61270d87828801612614565b91505092959194509250565b612722816120aa565b811461272d57600080fd5b50565b60008135905061273f81612719565b92915050565b6000806040838503121561275c5761275b61201b565b5b600061276a85828601612268565b925050602061277b85828601612730565b9150509250929050565b600067ffffffffffffffff8211156127a05761279f612517565b5b6127a982612126565b9050602081019050919050565b60006127c96127c484612785565b612577565b9050828152602081018484840111156127e5576127e4612512565b5b6127f08482856125c3565b509392505050565b600082601f83011261280d5761280c61250d565b5b813561281d8482602086016127b6565b91505092915050565b600080600080608085870312156128405761283f61201b565b5b600061284e87828801612268565b945050602061285f87828801612268565b9350506040612870878288016121b3565b925050606085013567ffffffffffffffff81111561289157612890612020565b5b61289d878288016127f8565b91505092959194509250565b600080604083850312156128c0576128bf61201b565b5b60006128ce85828601612268565b92505060206128df85828601612268565b9150509250929050565b7f4e487b7100000000000000000000000000000000000000000000000000000000600052602260045260246000fd5b6000600282049050600182168061293057607f821691505b602082108103612943576129426128e9565b5b50919050565b7f4552433732313a20617070726f76616c20746f2063757272656e74206f776e6560008201527f7200000000000000000000000000000000000000000000000000000000000000602082015250565b60006129a56021836120eb565b91506129b082612949565b604082019050919050565b600060208201905081810360008301526129d481612998565b9050919050565b7f4552433732313a20617070726f76652063616c6c6572206973206e6f7420746f60008201527f6b656e206f776e6572206f7220617070726f76656420666f7220616c6c000000602082015250565b6000612a37603d836120eb565b9150612a42826129db565b604082019050919050565b60006020820190508181036000830152612a6681612a2a565b9050919050565b7f4e487b7100000000000000000000000000000000000000000000000000000000600052601160045260246000fd5b6000612aa782612192565b9150612ab283612192565b9250828201905080821115612aca57612ac9612a6d565b5b92915050565b6000612adb82612192565b9150612ae683612192565b9250828203905081811115612afe57612afd612a6d565b5b92915050565b7f4e487b7100000000000000000000000000000000000000000000000000000000600052603260045260246000fd5b6000612b3e82612192565b91507fffffffffffffffffffffffffffffffffffffffffffffffffffffffffffffffff8203612b7057612b6f612a6d565b5b600182019050919050565b7f4552433732313a2063616c6c6572206973206e6f7420746f6b656e206f776e6560008201527f72206f7220617070726f76656400000000000000000000000000000000000000602082015250565b6000612bd7602d836120eb565b9150612be282612b7b565b604082019050919050565b60006020820190508181036000830152612c0681612bca565b9050919050565b7f4552433732313a20696e76616c696420746f6b656e2049440000000000000000600082015250565b6000612c436018836120eb565b9150612c4e82612c0d565b602082019050919050565b60006020820190508181036000830152612c7281612c36565b9050919050565b7f4552433732313a2061646472657373207a65726f206973206e6f74206120766160008201527f6c6964206f776e65720000000000000000000000000000000000000000000000602082015250565b6000612cd56029836120eb565b9150612ce082612c79565b604082019050919050565b60006020820190508181036000830152612d0481612cc8565b9050919050565b60008190508160005260206000209050919050565b60006020601f8301049050919050565b600082821b905092915050565b600060088302612d6d7fffffffffffffffffffffffffffffffffffffffffffffffffffffffffffffffff82612d30565b612d778683612d30565b95508019841693508086168417925050509392505050565b6000819050919050565b6000612db4612daf612daa84612192565b612d8f565b612192565b9050919050565b6000819050919050565b612dce83612d99565b612de2612dda82612dbb565b848454612d3d565b825550505050565b600090565b612df7612dea565b612e02818484612dc5565b505050565b5b81811015612e2657612e1b600082612def565b600181019050612e08565b5050565b601f821115612e6b57612e3c81612d0b565b612e4584612d20565b81016020851015612e54578190505b612e68612e6085612d20565b830182612e07565b50505b505050565b600082821c905092915050565b6000612e8e60001984600802612e70565b1980831691505092915050565b6000612ea78383612e7d565b9150826002028217905092915050565b612ec0826120e0565b67ffffffffffffffff811115612ed957612ed8612517565b5b612ee38254612918565b612eee828285612e2a565b600060209050601f831160018114612f215760008415612f0f578287015190505b612f198582612e9b565b865550612f81565b601f198416612f2f86612d0b565b60005b82811015612f5757848901518255600182019150602085019450602081019050612f32565b86831015612f745784890151612f70601f891682612e7d565b8355505b6001600288020188555050505b505050505050565b600081905092915050565b6000612f9f826120e0565b612fa98185612f89565b9350612fb98185602086016120fc565b80840191505092915050565b6000612fd18285612f94565b9150612fdd8284612f94565b91508190509392505050565b7f4552433732313a207472616e736665722066726f6d20696e636f72726563742060008201527f6f776e6572000000000000000000000000000000000000000000000000000000602082015250565b60006130456025836120eb565b915061305082612fe9565b604082019050919050565b6000602082019050818103600083015261307481613038565b9050919050565b7f4552433732313a207472616e7366657220746f20746865207a65726f2061646460008201527f7265737300000000000000000000000000000000000000000000000000000000602082015250565b60006130d76024836120eb565b91506130e28261307b565b604082019050919050565b60006020820190508181036000830152613106816130ca565b9050919050565b7f5265656e7472616e637947756172643a207265656e7472616e742063616c6c00600082015250565b6000613143601f836120eb565b915061314e8261310d565b602082019050919050565b6000602082019050818103600083015261317281613136565b9050919050565b7f7b00000000000000000000000000000000000000000000000000000000000000600082015250565b60006131af600183612f89565b91506131ba82613179565b600182019050919050565b7f226e616d65223a20220000000000000000000000000000000000000000000000600082015250565b60006131fb600983612f89565b9150613206826131c5565b600982019050919050565b7f222c000000000000000000000000000000000000000000000000000000000000600082015250565b6000613247600283612f89565b915061325282613211565b600282019050919050565b7f22696d616765223a202200000000000000000000000000000000000000000000600082015250565b6000613293600a83612f89565b915061329e8261325d565b600a82019050919050565b7f226465736372697074696f6e223a202200000000000000000000000000000000600082015250565b60006132df601083612f89565b91506132ea826132a9565b601082019050919050565b7f2273796d6d65747269634b6579223a2022000000000000000000000000000000600082015250565b600061332b601183612f89565b9150613336826132f5565b601182019050919050565b7f2200000000000000000000000000000000000000000000000000000000000000600082015250565b6000613377600183612f89565b915061338282613341565b600182019050919050565b7f7d00000000000000000000000000000000000000000000000000000000000000600082015250565b60006133c3600183612f89565b91506133ce8261338d565b600182019050919050565b60006133e4826131a2565b91506133ef826131ee565b91506133fb8287612f94565b91506134068261323a565b915061341182613286565b915061341d8286612f94565b91506134288261323a565b9150613433826132d2565b915061343f8285612f94565b915061344a8261323a565b91506134558261331e565b91506134618284612f94565b915061346c8261336a565b9150613477826133b6565b915081905095945050505050565b7f646174613a6170706c69636174696f6e2f6a736f6e3b6261736536342c000000600082015250565b60006134bb601d83612f89565b91506134c682613485565b601d82019050919050565b60006134dc826134ae565b91506134e88284612f94565b915081905092915050565b7f45524337323155524953746f726167653a2055524920736574206f66206e6f6e60008201527f6578697374656e7420746f6b656e000000000000000000000000000000000000602082015250565b600061354f602e836120eb565b915061355a826134f3565b604082019050919050565b6000602082019050818103600083015261357e81613542565b9050919050565b7f4552433732313a20617070726f766520746f2063616c6c657200000000000000600082015250565b60006135bb6019836120eb565b91506135c682613585565b602082019050919050565b600060208201905081810360008301526135ea816135ae565b9050919050565b7f4552433732313a207472616e7366657220746f206e6f6e20455243373231526560008201527f63656976657220696d706c656d656e7465720000000000000000000000000000602082015250565b600061364d6032836120eb565b9150613658826135f1565b604082019050919050565b6000602082019050818103600083015261367c81613640565b9050919050565b7f4e487b7100000000000000000000000000000000000000000000000000000000600052601260045260246000fd5b60006136bd82612192565b91506136c883612192565b9250826136d8576136d7613683565b5b828204905092915050565b60006136ee82612192565b91506136f983612192565b925082820261370781612192565b9150828204841483151761371e5761371d612a6d565b5b5092915050565b600081519050919050565b600082825260208201905092915050565b600061374c82613725565b6137568185613730565b93506137668185602086016120fc565b61376f81612126565b840191505092915050565b600060808201905061378f6000830187612227565b61379c6020830186612227565b6137a960408301856124e3565b81810360608301526137bb8184613741565b905095945050505050565b6000815190506137d581612051565b92915050565b6000602082840312156137f1576137f061201b565b5b60006137ff848285016137c6565b91505092915050565b7f4552433732313a206d696e7420746f20746865207a65726f2061646472657373600082015250565b600061383e6020836120eb565b915061384982613808565b602082019050919050565b6000602082019050818103600083015261386d81613831565b9050919050565b7f4552433732313a20746f6b656e20616c7265616479206d696e74656400000000600082015250565b60006138aa601c836120eb565b91506138b582613874565b602082019050919050565b600060208201905081810360008301526138d98161389d565b905091905056fe4142434445464748494a4b4c4d4e4f505152535455565758595a6162636465666768696a6b6c6d6e6f707172737475767778797a303132333435363738392b2fa264697066735822122034a416134e3bfa2c5f7ca422ee333bd55b549f17226679e664bf3c40890a59b664736f6c63430008120033",
  "linkReferences": {},
  "deployedLinkReferences": {}
}